{
  "contractName": "Authorizable",
  "abi": [
    {
      "constant": true,
      "inputs": [
        {
          "name": "",
          "type": "uint256"
        }
      ],
      "name": "authorized",
      "outputs": [
        {
          "name": "",
          "type": "address"
        }
      ],
      "payable": false,
      "stateMutability": "view",
      "type": "function"
    },
    {
      "constant": false,
      "inputs": [],
      "name": "renounceOwnership",
      "outputs": [],
      "payable": false,
      "stateMutability": "nonpayable",
      "type": "function"
    },
    {
      "constant": true,
      "inputs": [],
      "name": "owner",
      "outputs": [
        {
          "name": "",
          "type": "address"
        }
      ],
      "payable": false,
      "stateMutability": "view",
      "type": "function"
    },
    {
      "constant": true,
      "inputs": [],
      "name": "numAuthorized",
      "outputs": [
        {
          "name": "",
          "type": "uint8"
        }
      ],
      "payable": false,
      "stateMutability": "view",
      "type": "function"
    },
    {
      "constant": false,
      "inputs": [
        {
          "name": "_newOwner",
          "type": "address"
        }
      ],
      "name": "transferOwnership",
      "outputs": [],
      "payable": false,
      "stateMutability": "nonpayable",
      "type": "function"
    },
    {
      "inputs": [],
      "payable": false,
      "stateMutability": "nonpayable",
      "type": "constructor"
    },
    {
      "anonymous": false,
      "inputs": [
        {
          "indexed": true,
          "name": "previousOwner",
          "type": "address"
        }
      ],
      "name": "OwnershipRenounced",
      "type": "event"
    },
    {
      "anonymous": false,
      "inputs": [
        {
          "indexed": true,
          "name": "previousOwner",
          "type": "address"
        },
        {
          "indexed": true,
          "name": "newOwner",
          "type": "address"
        }
      ],
      "name": "OwnershipTransferred",
      "type": "event"
    },
    {
      "constant": false,
      "inputs": [
        {
          "name": "_account",
          "type": "address"
        }
      ],
      "name": "addAuthorized",
      "outputs": [
        {
          "name": "",
          "type": "bool"
        }
      ],
      "payable": false,
      "stateMutability": "nonpayable",
      "type": "function"
    },
    {
      "constant": true,
      "inputs": [
        {
          "name": "_account",
          "type": "address"
        }
      ],
      "name": "isAuthorized",
      "outputs": [
        {
          "name": "",
          "type": "bool"
        }
      ],
      "payable": false,
      "stateMutability": "view",
      "type": "function"
    },
    {
      "constant": false,
      "inputs": [
        {
          "name": "_account",
          "type": "address"
        }
      ],
      "name": "removeAuthorized",
      "outputs": [
        {
          "name": "",
          "type": "bool"
        }
      ],
      "payable": false,
      "stateMutability": "nonpayable",
      "type": "function"
    }
  ],
  "bytecode": "0x608060405234801561001057600080fd5b50336000806101000a81548173ffffffffffffffffffffffffffffffffffffffff021916908373ffffffffffffffffffffffffffffffffffffffff16021790555060026001816100609190610132565b503360018081548110151561007157fe5b9060005260206000200160006101000a81548173ffffffffffffffffffffffffffffffffffffffff021916908373ffffffffffffffffffffffffffffffffffffffff1602179055506001600260003373ffffffffffffffffffffffffffffffffffffffff1673ffffffffffffffffffffffffffffffffffffffff16815260200190815260200160002060006101000a81548160ff0219169083151502179055506001600360006101000a81548160ff021916908360ff160217905550610183565b81548183558181111561015957818360005260206000209182019101610158919061015e565b5b505050565b61018091905b8082111561017c576000816000905550600101610164565b5090565b90565b61098f806101926000396000f30060806040526004361061008e576000357c0100000000000000000000000000000000000000000000000000000000900463ffffffff1680630d48669a14610093578063485d7d9414610100578063715018a61461015b5780638da5cb5b14610172578063a31f8982146101c9578063cf1c316a146101fa578063f2fde38b14610255578063fe9fbb8014610298575b600080fd5b34801561009f57600080fd5b506100be600480360381019080803590602001909291905050506102f3565b604051808273ffffffffffffffffffffffffffffffffffffffff1673ffffffffffffffffffffffffffffffffffffffff16815260200191505060405180910390f35b34801561010c57600080fd5b50610141600480360381019080803573ffffffffffffffffffffffffffffffffffffffff169060200190929190505050610331565b604051808215151515815260200191505060405180910390f35b34801561016757600080fd5b50610170610422565b005b34801561017e57600080fd5b50610187610524565b604051808273ffffffffffffffffffffffffffffffffffffffff1673ffffffffffffffffffffffffffffffffffffffff16815260200191505060405180910390f35b3480156101d557600080fd5b506101de610549565b604051808260ff1660ff16815260200191505060405180910390f35b34801561020657600080fd5b5061023b600480360381019080803573ffffffffffffffffffffffffffffffffffffffff16906020019092919050505061055c565b604051808215151515815260200191505060405180910390f35b34801561026157600080fd5b50610296600480360381019080803573ffffffffffffffffffffffffffffffffffffffff16906020019092919050505061072a565b005b3480156102a457600080fd5b506102d9600480360381019080803573ffffffffffffffffffffffffffffffffffffffff169060200190929190505050610791565b604051808215151515815260200191505060405180910390f35b60018181548110151561030257fe5b906000526020600020016000915054906101000a900473ffffffffffffffffffffffffffffffffffffffff1681565b60008060009054906101000a900473ffffffffffffffffffffffffffffffffffffffff1673ffffffffffffffffffffffffffffffffffffffff163373ffffffffffffffffffffffffffffffffffffffff1614151561038e57600080fd5b6000600260008473ffffffffffffffffffffffffffffffffffffffff1673ffffffffffffffffffffffffffffffffffffffff16815260200190815260200160002060006101000a81548160ff0219169083151502179055506003600081819054906101000a900460ff16809291906001900391906101000a81548160ff021916908360ff1602179055505060019050919050565b6000809054906101000a900473ffffffffffffffffffffffffffffffffffffffff1673ffffffffffffffffffffffffffffffffffffffff163373ffffffffffffffffffffffffffffffffffffffff1614151561047d57600080fd5b6000809054906101000a900473ffffffffffffffffffffffffffffffffffffffff1673ffffffffffffffffffffffffffffffffffffffff167ff8df31144d9c2f0f6b59d69b8b98abd5459d07f2742c4df920b25aae33c6482060405160405180910390a260008060006101000a81548173ffffffffffffffffffffffffffffffffffffffff021916908373ffffffffffffffffffffffffffffffffffffffff160217905550565b6000809054906101000a900473ffffffffffffffffffffffffffffffffffffffff1681565b600360009054906101000a900460ff1681565b60008060009054906101000a900473ffffffffffffffffffffffffffffffffffffffff1673ffffffffffffffffffffffffffffffffffffffff163373ffffffffffffffffffffffffffffffffffffffff161415156105b957600080fd5b60001515600260008473ffffffffffffffffffffffffffffffffffffffff1673ffffffffffffffffffffffffffffffffffffffff16815260200190815260200160002060009054906101000a900460ff1615151415610721576001600260008473ffffffffffffffffffffffffffffffffffffffff1673ffffffffffffffffffffffffffffffffffffffff16815260200190815260200160002060006101000a81548160ff0219169083151502179055506001805480919060010161067e9190610912565b5081600161069a600180805490506107ff90919063ffffffff16565b8154811015156106a657fe5b9060005260206000200160006101000a81548173ffffffffffffffffffffffffffffffffffffffff021916908373ffffffffffffffffffffffffffffffffffffffff1602179055506003600081819054906101000a900460ff168092919060010191906101000a81548160ff021916908360ff160217905550505b60019050919050565b6000809054906101000a900473ffffffffffffffffffffffffffffffffffffffff1673ffffffffffffffffffffffffffffffffffffffff163373ffffffffffffffffffffffffffffffffffffffff1614151561078557600080fd5b61078e81610818565b50565b600060011515600260008473ffffffffffffffffffffffffffffffffffffffff1673ffffffffffffffffffffffffffffffffffffffff16815260200190815260200160002060009054906101000a900460ff16151514156107f557600190506107fa565b600090505b919050565b600082821115151561080d57fe5b818303905092915050565b600073ffffffffffffffffffffffffffffffffffffffff168173ffffffffffffffffffffffffffffffffffffffff161415151561085457600080fd5b8073ffffffffffffffffffffffffffffffffffffffff166000809054906101000a900473ffffffffffffffffffffffffffffffffffffffff1673ffffffffffffffffffffffffffffffffffffffff167f8be0079c531659141344cd1fd0a4f28419497f9722a3daafe3b4186f6b6457e060405160405180910390a3806000806101000a81548173ffffffffffffffffffffffffffffffffffffffff021916908373ffffffffffffffffffffffffffffffffffffffff16021790555050565b81548183558181111561093957818360005260206000209182019101610938919061093e565b5b505050565b61096091905b8082111561095c576000816000905550600101610944565b5090565b905600a165627a7a723058203d292fb30a3cc3e21a24f49a7f41a21c8913d92aab8ad7fa2fcdf7d9ad1f205e0029",
  "source": "pragma solidity ^0.4.24;\n\nimport \"../../node_modules/openzeppelin-solidity/contracts/ownership/Ownable.sol\";\nimport \"../../node_modules/openzeppelin-solidity/contracts/math/SafeMath.sol\";\n\n/**\n * @title Authorizable\n * @dev The Authorizable contract allows the owner to set a number of additional\n * acccounts with limited administrative privileges to simplify user permissions.\n * Only the contract owner can add or remove authorized accounts.\n * @author jsdavis28\n */\ncontract Authorizable is Ownable {\n    using SafeMath for uint256;\n\n    address[] public authorized;\n    mapping(address => bool) authorizedIndex;\n    uint8 public numAuthorized;\n\n    /**\n     * @dev The Authorizable constructor sets the original `owner` of the contract\n     * as authorized.\n     */\n    constructor() public {\n        authorized.length = 2;\n        authorized[1] = msg.sender;\n        authorizedIndex[msg.sender] = true;\n        numAuthorized = 1;\n    }\n\n    /**\n     * @dev Throws if called by any account other than an authorized account.\n     */\n    modifier onlyAuthorized {\n        require(isAuthorized(msg.sender));\n        _;\n    }\n\n    /**\n     * @dev Allows the current owner to add an authorized account.\n     * @param _account The address being added as authorized.\n     */\n    function addAuthorized(address _account) public onlyOwner returns (bool) {\n        if (authorizedIndex[_account] == false) {\n        \tauthorizedIndex[_account] = true;\n        \tauthorized.length++;\n        \tauthorized[authorized.length.sub(1)] = _account;\n        \tnumAuthorized++;\n        }\n\n        return true;\n    }\n\n    /**\n     * @dev Validates whether an account is authorized for enhanced permissions.\n     * @param _account The address being evaluated.\n     */\n    function isAuthorized(address _account) public constant returns (bool) {\n        if (authorizedIndex[_account] == true) {\n        \treturn true;\n        }\n\n        return false;\n    }\n\n    /**\n     * @dev Allows the current owner to remove an authorized account.\n     * @param _account The address to remove from authorized.\n     */\n    function removeAuthorized(address _account) public onlyOwner returns (bool) {\n        authorizedIndex[_account] = false;\n        numAuthorized--;\n\n\n        return true;\n    }\n}\n",
  "sourcePath": "/home/jef/BlockWRKToken/contracts/Authorizable.sol",
  "compiler": {
    "name": "solc",
    "version": "0.4.24+commit.e67f0147.Emscripten.clang"
  },
  "schemaVersion": "2.0.0",
  "updatedAt": "2018-10-11T03:10:13.373Z"
}