{
  "contractName": "BlockWRKICO",
  "abi": [
    {
      "constant": true,
      "inputs": [],
      "name": "premineReserved",
      "outputs": [
        {
          "name": "",
          "type": "uint256"
        }
      ],
      "payable": false,
      "stateMutability": "view",
      "type": "function"
    },
    {
      "constant": true,
      "inputs": [],
      "name": "name",
      "outputs": [
        {
          "name": "",
          "type": "string"
        }
      ],
      "payable": false,
      "stateMutability": "view",
      "type": "function"
    },
    {
      "constant": false,
      "inputs": [
        {
          "name": "_spender",
          "type": "address"
        },
        {
          "name": "_value",
          "type": "uint256"
        }
      ],
      "name": "approve",
      "outputs": [
        {
          "name": "",
          "type": "bool"
        }
      ],
      "payable": false,
      "stateMutability": "nonpayable",
      "type": "function"
    },
    {
      "constant": true,
      "inputs": [
        {
          "name": "",
          "type": "uint256"
        }
      ],
      "name": "authorized",
      "outputs": [
        {
          "name": "",
          "type": "address"
        }
      ],
      "payable": false,
      "stateMutability": "view",
      "type": "function"
    },
    {
      "constant": true,
      "inputs": [],
      "name": "totalSupply",
      "outputs": [
        {
          "name": "",
          "type": "uint256"
        }
      ],
      "payable": false,
      "stateMutability": "view",
      "type": "function"
    },
    {
      "constant": false,
      "inputs": [
        {
          "name": "_to",
          "type": "address"
        },
        {
          "name": "_value",
          "type": "uint256"
        },
        {
          "name": "_fee",
          "type": "uint256"
        }
      ],
      "name": "inAppTokenPurchase",
      "outputs": [],
      "payable": false,
      "stateMutability": "nonpayable",
      "type": "function"
    },
    {
      "constant": false,
      "inputs": [
        {
          "name": "_from",
          "type": "address"
        },
        {
          "name": "_to",
          "type": "address"
        },
        {
          "name": "_value",
          "type": "uint256"
        }
      ],
      "name": "transferFrom",
      "outputs": [
        {
          "name": "",
          "type": "bool"
        }
      ],
      "payable": false,
      "stateMutability": "nonpayable",
      "type": "function"
    },
    {
      "constant": true,
      "inputs": [],
      "name": "INITIAL_SUPPLY",
      "outputs": [
        {
          "name": "",
          "type": "uint256"
        }
      ],
      "payable": false,
      "stateMutability": "view",
      "type": "function"
    },
    {
      "constant": true,
      "inputs": [],
      "name": "decimals",
      "outputs": [
        {
          "name": "",
          "type": "uint8"
        }
      ],
      "payable": false,
      "stateMutability": "view",
      "type": "function"
    },
    {
      "constant": true,
      "inputs": [],
      "name": "cap",
      "outputs": [
        {
          "name": "",
          "type": "uint256"
        }
      ],
      "payable": false,
      "stateMutability": "view",
      "type": "function"
    },
    {
      "constant": true,
      "inputs": [],
      "name": "currentTierRate",
      "outputs": [
        {
          "name": "",
          "type": "uint256"
        }
      ],
      "payable": false,
      "stateMutability": "view",
      "type": "function"
    },
    {
      "constant": true,
      "inputs": [],
      "name": "weiRaised",
      "outputs": [
        {
          "name": "",
          "type": "uint256"
        }
      ],
      "payable": false,
      "stateMutability": "view",
      "type": "function"
    },
    {
      "constant": false,
      "inputs": [
        {
          "name": "_account",
          "type": "address"
        }
      ],
      "name": "removeAuthorized",
      "outputs": [],
      "payable": false,
      "stateMutability": "nonpayable",
      "type": "function"
    },
    {
      "constant": false,
      "inputs": [
        {
          "name": "_newAddress",
          "type": "address"
        }
      ],
      "name": "setFeeAccount",
      "outputs": [],
      "payable": false,
      "stateMutability": "nonpayable",
      "type": "function"
    },
    {
      "constant": true,
      "inputs": [],
      "name": "closingTime",
      "outputs": [
        {
          "name": "",
          "type": "uint256"
        }
      ],
      "payable": false,
      "stateMutability": "view",
      "type": "function"
    },
    {
      "constant": false,
      "inputs": [
        {
          "name": "_spender",
          "type": "address"
        },
        {
          "name": "_subtractedValue",
          "type": "uint256"
        }
      ],
      "name": "decreaseApproval",
      "outputs": [
        {
          "name": "",
          "type": "bool"
        }
      ],
      "payable": false,
      "stateMutability": "nonpayable",
      "type": "function"
    },
    {
      "constant": false,
      "inputs": [
        {
          "name": "_newRate",
          "type": "uint8"
        }
      ],
      "name": "setTaxRate",
      "outputs": [],
      "payable": false,
      "stateMutability": "nonpayable",
      "type": "function"
    },
    {
      "constant": false,
      "inputs": [
        {
          "name": "_to",
          "type": "address"
        },
        {
          "name": "_value",
          "type": "uint256"
        }
      ],
      "name": "inAppTokenDistribution",
      "outputs": [],
      "payable": false,
      "stateMutability": "nonpayable",
      "type": "function"
    },
    {
      "constant": true,
      "inputs": [
        {
          "name": "_owner",
          "type": "address"
        }
      ],
      "name": "balanceOf",
      "outputs": [
        {
          "name": "",
          "type": "uint256"
        }
      ],
      "payable": false,
      "stateMutability": "view",
      "type": "function"
    },
    {
      "constant": false,
      "inputs": [],
      "name": "renounceOwnership",
      "outputs": [],
      "payable": false,
      "stateMutability": "nonpayable",
      "type": "function"
    },
    {
      "constant": true,
      "inputs": [],
      "name": "taxRate",
      "outputs": [
        {
          "name": "",
          "type": "uint8"
        }
      ],
      "payable": false,
      "stateMutability": "view",
      "type": "function"
    },
    {
      "constant": false,
      "inputs": [
        {
          "name": "_newAddress",
          "type": "address"
        }
      ],
      "name": "setInAppPurchaseWallet",
      "outputs": [],
      "payable": false,
      "stateMutability": "nonpayable",
      "type": "function"
    },
    {
      "constant": true,
      "inputs": [],
      "name": "reservedTokenWallet",
      "outputs": [
        {
          "name": "",
          "type": "address"
        }
      ],
      "payable": false,
      "stateMutability": "view",
      "type": "function"
    },
    {
      "constant": true,
      "inputs": [],
      "name": "premineDistributionPool",
      "outputs": [
        {
          "name": "",
          "type": "uint256"
        }
      ],
      "payable": false,
      "stateMutability": "view",
      "type": "function"
    },
    {
      "constant": true,
      "inputs": [],
      "name": "owner",
      "outputs": [
        {
          "name": "",
          "type": "address"
        }
      ],
      "payable": false,
      "stateMutability": "view",
      "type": "function"
    },
    {
      "constant": true,
      "inputs": [],
      "name": "symbol",
      "outputs": [
        {
          "name": "",
          "type": "string"
        }
      ],
      "payable": false,
      "stateMutability": "view",
      "type": "function"
    },
    {
      "constant": true,
      "inputs": [],
      "name": "numAuthorized",
      "outputs": [
        {
          "name": "",
          "type": "uint8"
        }
      ],
      "payable": false,
      "stateMutability": "view",
      "type": "function"
    },
    {
      "constant": false,
      "inputs": [
        {
          "name": "_to",
          "type": "address"
        },
        {
          "name": "_value",
          "type": "uint256"
        }
      ],
      "name": "transfer",
      "outputs": [
        {
          "name": "",
          "type": "bool"
        }
      ],
      "payable": false,
      "stateMutability": "nonpayable",
      "type": "function"
    },
    {
      "constant": true,
      "inputs": [],
      "name": "openingTime",
      "outputs": [
        {
          "name": "",
          "type": "uint256"
        }
      ],
      "payable": false,
      "stateMutability": "view",
      "type": "function"
    },
    {
      "constant": false,
      "inputs": [
        {
          "name": "_account",
          "type": "address"
        }
      ],
      "name": "addAuthorized",
      "outputs": [],
      "payable": false,
      "stateMutability": "nonpayable",
      "type": "function"
    },
    {
      "constant": false,
      "inputs": [
        {
          "name": "_signature",
          "type": "bytes"
        },
        {
          "name": "_from",
          "type": "address"
        },
        {
          "name": "_to",
          "type": "address"
        },
        {
          "name": "_value",
          "type": "uint256"
        },
        {
          "name": "_fee",
          "type": "uint256"
        },
        {
          "name": "_nonce",
          "type": "uint256"
        }
      ],
      "name": "transactionHandler",
      "outputs": [],
      "payable": false,
      "stateMutability": "nonpayable",
      "type": "function"
    },
    {
      "constant": false,
      "inputs": [
        {
          "name": "_spender",
          "type": "address"
        },
        {
          "name": "_addedValue",
          "type": "uint256"
        }
      ],
      "name": "increaseApproval",
      "outputs": [
        {
          "name": "",
          "type": "bool"
        }
      ],
      "payable": false,
      "stateMutability": "nonpayable",
      "type": "function"
    },
    {
      "constant": true,
      "inputs": [
        {
          "name": "_owner",
          "type": "address"
        },
        {
          "name": "_spender",
          "type": "address"
        }
      ],
      "name": "allowance",
      "outputs": [
        {
          "name": "",
          "type": "uint256"
        }
      ],
      "payable": false,
      "stateMutability": "view",
      "type": "function"
    },
    {
      "constant": true,
      "inputs": [],
      "name": "inAppPurchaseWallet",
      "outputs": [
        {
          "name": "",
          "type": "address"
        }
      ],
      "payable": false,
      "stateMutability": "view",
      "type": "function"
    },
    {
      "constant": true,
      "inputs": [],
      "name": "distributionPoolWallet",
      "outputs": [
        {
          "name": "",
          "type": "address"
        }
      ],
      "payable": false,
      "stateMutability": "view",
      "type": "function"
    },
    {
      "constant": true,
      "inputs": [],
      "name": "salesWallet",
      "outputs": [
        {
          "name": "",
          "type": "address"
        }
      ],
      "payable": false,
      "stateMutability": "view",
      "type": "function"
    },
    {
      "constant": false,
      "inputs": [
        {
          "name": "_newOwner",
          "type": "address"
        }
      ],
      "name": "transferOwnership",
      "outputs": [],
      "payable": false,
      "stateMutability": "nonpayable",
      "type": "function"
    },
    {
      "constant": true,
      "inputs": [
        {
          "name": "_account",
          "type": "address"
        }
      ],
      "name": "isAuthorized",
      "outputs": [
        {
          "name": "",
          "type": "bool"
        }
      ],
      "payable": false,
      "stateMutability": "view",
      "type": "function"
    },
    {
      "inputs": [],
      "payable": false,
      "stateMutability": "nonpayable",
      "type": "constructor"
    },
    {
      "payable": true,
      "stateMutability": "payable",
      "type": "fallback"
    },
    {
      "anonymous": false,
      "inputs": [
        {
          "indexed": true,
          "name": "purchaser",
          "type": "address"
        },
        {
          "indexed": true,
          "name": "beneficiary",
          "type": "address"
        },
        {
          "indexed": false,
          "name": "value",
          "type": "uint256"
        },
        {
          "indexed": false,
          "name": "amount",
          "type": "uint256"
        }
      ],
      "name": "TokenPurchase",
      "type": "event"
    },
    {
      "anonymous": false,
      "inputs": [
        {
          "indexed": true,
          "name": "wallet",
          "type": "address"
        },
        {
          "indexed": false,
          "name": "amount",
          "type": "uint256"
        }
      ],
      "name": "CloseoutSale",
      "type": "event"
    },
    {
      "anonymous": false,
      "inputs": [
        {
          "indexed": true,
          "name": "previousOwner",
          "type": "address"
        }
      ],
      "name": "OwnershipRenounced",
      "type": "event"
    },
    {
      "anonymous": false,
      "inputs": [
        {
          "indexed": true,
          "name": "previousOwner",
          "type": "address"
        },
        {
          "indexed": true,
          "name": "newOwner",
          "type": "address"
        }
      ],
      "name": "OwnershipTransferred",
      "type": "event"
    },
    {
      "anonymous": false,
      "inputs": [
        {
          "indexed": true,
          "name": "delegate",
          "type": "address"
        },
        {
          "indexed": true,
          "name": "from",
          "type": "address"
        },
        {
          "indexed": true,
          "name": "to",
          "type": "address"
        },
        {
          "indexed": false,
          "name": "value",
          "type": "uint256"
        }
      ],
      "name": "TransferPreSigned",
      "type": "event"
    },
    {
      "anonymous": false,
      "inputs": [
        {
          "indexed": true,
          "name": "owner",
          "type": "address"
        },
        {
          "indexed": true,
          "name": "spender",
          "type": "address"
        },
        {
          "indexed": false,
          "name": "value",
          "type": "uint256"
        }
      ],
      "name": "Approval",
      "type": "event"
    },
    {
      "anonymous": false,
      "inputs": [
        {
          "indexed": true,
          "name": "from",
          "type": "address"
        },
        {
          "indexed": true,
          "name": "to",
          "type": "address"
        },
        {
          "indexed": false,
          "name": "value",
          "type": "uint256"
        }
      ],
      "name": "Transfer",
      "type": "event"
    },
    {
      "constant": false,
      "inputs": [
        {
          "name": "_beneficiary",
          "type": "address"
        }
      ],
      "name": "buyTokens",
      "outputs": [],
      "payable": true,
      "stateMutability": "payable",
      "type": "function"
    },
    {
      "constant": true,
      "inputs": [],
      "name": "capReached",
      "outputs": [
        {
          "name": "",
          "type": "bool"
        }
      ],
      "payable": false,
      "stateMutability": "view",
      "type": "function"
    },
    {
      "constant": true,
      "inputs": [],
      "name": "hasClosed",
      "outputs": [
        {
          "name": "",
          "type": "bool"
        }
      ],
      "payable": false,
      "stateMutability": "view",
      "type": "function"
    },
    {
      "constant": true,
      "inputs": [],
      "name": "tokensRemainingInSale",
      "outputs": [
        {
          "name": "",
          "type": "uint256"
        }
      ],
      "payable": false,
      "stateMutability": "view",
      "type": "function"
    },
    {
      "constant": true,
      "inputs": [],
      "name": "tokensRemainingInTier",
      "outputs": [
        {
          "name": "",
          "type": "uint256"
        }
      ],
      "payable": false,
      "stateMutability": "view",
      "type": "function"
    },
    {
      "constant": false,
      "inputs": [],
      "name": "transferRemainingTokens",
      "outputs": [],
      "payable": false,
      "stateMutability": "nonpayable",
      "type": "function"
    }
  ],
  "bytecode": "0x60806040526040805190810160405280600881526020017f426c6f636b57524b0000000000000000000000000000000000000000000000008152506009908051906020019062000051929190620004a8565b506040805190810160405280600381526020017f57524b0000000000000000000000000000000000000000000000000000000000815250600a90805190602001906200009f929190620004a8565b506004600b60006101000a81548160ff021916908360ff16021790555061271060125562030d40601b55619c40601c55614e20601d55612710601e55612710601f55612710602055612710602155612710602255612710602355612710602455620001286305f5e1006012546200046c64010000000002620033e1179091906401000000009004565b60255562000154630bebc2006012546200046c64010000000002620033e1179091906401000000009004565b60265562000180631dcd65006012546200046c64010000000002620033e1179091906401000000009004565b602755620001ac631dcd65006012546200046c64010000000002620033e1179091906401000000009004565b602855620001d8631dcd65006012546200046c64010000000002620033e1179091906401000000009004565b60295562000204631dcd65006012546200046c64010000000002620033e1179091906401000000009004565b602a5562000230631dcd65006012546200046c64010000000002620033e1179091906401000000009004565b602b556200025c631dcd65006012546200046c64010000000002620033e1179091906401000000009004565b602c5562000288631dcd65006012546200046c64010000000002620033e1179091906401000000009004565b602d55620002b4631dcd65006012546200046c64010000000002620033e1179091906401000000009004565b602e55620002e16401004ccb006012546200046c64010000000002620033e1179091906401000000009004565b602f556200030e6402c54b97006012546200046c64010000000002620033e1179091906401000000009004565b6030553480156200031e57600080fd5b5033600560016101000a81548173ffffffffffffffffffffffffffffffffffffffff021916908373ffffffffffffffffffffffffffffffffffffffff16021790555060026006816200037191906200052f565b5033600660018154811015156200038457fe5b9060005260206000200160006101000a81548173ffffffffffffffffffffffffffffffffffffffff021916908373ffffffffffffffffffffffffffffffffffffffff1602179055506001600760003373ffffffffffffffffffffffffffffffffffffffff1673ffffffffffffffffffffffffffffffffffffffff16815260200190815260200160002060006101000a81548160ff0219169083151502179055506001600860006101000a81548160ff021916908360ff160217905550703ac653e386b9497f5773eac20000000000601481905550426017819055504260158190555062000586565b600080831415620004815760009050620004a2565b81830290508183828115156200049357fe5b041415156200049e57fe5b8090505b92915050565b828054600181600116156101000203166002900490600052602060002090601f016020900481019282601f10620004eb57805160ff19168380011785556200051c565b828001600101855582156200051c579182015b828111156200051b578251825591602001919060010190620004fe565b5b5090506200052b91906200055e565b5090565b81548183558181111562000559578183600052602060002091820191016200055891906200055e565b5b505050565b6200058391905b808211156200057f57600081600090555060010162000565565b5090565b90565b613fdd80620005966000396000f30060806040526004361061021a576000357c0100000000000000000000000000000000000000000000000000000000900463ffffffff16806305f7939a1461022557806306fdde0314610250578063095ea7b3146102e05780630d48669a146103455780631515bc2b146103b257806318160ddd146103e15780631bfd816b1461040c57806323b872dd146104635780632ff2e9dc146104e8578063313ce56714610513578063355274ea14610544578063379b4ed01461056f5780634042b66f1461059a578063485d7d94146105c55780634b023cf8146106085780634b6753bc1461064b5780634f935945146106765780635946748c146106a557806363cc4aa2146106d057806366188463146106e75780636c791e041461074c578063705388631461077c57806370a08231146107c9578063715018a614610820578063771a3a1d146108375780637b5f4f5b146108685780637dd6ab72146108ab578063819d95c1146109025780638da5cb5b1461092d57806395d89b4114610984578063a31f898214610a14578063a9059cbb14610a45578063b7a8807c14610aaa578063cf1c316a14610ad5578063d6d2229114610b18578063d73dd62314610bdf578063dd62ed3e14610c44578063e3175c4d14610cbb578063e5ee34a214610d12578063ec8ac4d814610d69578063edf4d84714610d9f578063f2fde38b14610df6578063f4dab3ff14610e39578063fe9fbb8014610e64575b61022333610ebf565b005b34801561023157600080fd5b5061023a610f79565b6040518082815260200191505060405180910390f35b34801561025c57600080fd5b50610265610f7f565b6040518080602001828103825283818151815260200191508051906020019080838360005b838110156102a557808201518184015260208101905061028a565b50505050905090810190601f1680156102d25780820380516001836020036101000a031916815260200191505b509250505060405180910390f35b3480156102ec57600080fd5b5061032b600480360381019080803573ffffffffffffffffffffffffffffffffffffffff1690602001909291908035906020019092919050505061101d565b604051808215151515815260200191505060405180910390f35b34801561035157600080fd5b506103706004803603810190808035906020019092919050505061110f565b604051808273ffffffffffffffffffffffffffffffffffffffff1673ffffffffffffffffffffffffffffffffffffffff16815260200191505060405180910390f35b3480156103be57600080fd5b506103c761114d565b604051808215151515815260200191505060405180910390f35b3480156103ed57600080fd5b506103f6611159565b6040518082815260200191505060405180910390f35b34801561041857600080fd5b50610461600480360381019080803573ffffffffffffffffffffffffffffffffffffffff1690602001909291908035906020019092919080359060200190929190505050611163565b005b34801561046f57600080fd5b506104ce600480360381019080803573ffffffffffffffffffffffffffffffffffffffff169060200190929190803573ffffffffffffffffffffffffffffffffffffffff169060200190929190803590602001909291905050506115b0565b604051808215151515815260200191505060405180910390f35b3480156104f457600080fd5b506104fd611b1c565b6040518082815260200191505060405180910390f35b34801561051f57600080fd5b50610528611b22565b604051808260ff1660ff16815260200191505060405180910390f35b34801561055057600080fd5b50610559611b35565b6040518082815260200191505060405180910390f35b34801561057b57600080fd5b50610584611b3b565b6040518082815260200191505060405180910390f35b3480156105a657600080fd5b506105af611b41565b6040518082815260200191505060405180910390f35b3480156105d157600080fd5b50610606600480360381019080803573ffffffffffffffffffffffffffffffffffffffff169060200190929190505050611b47565b005b34801561061457600080fd5b50610649600480360381019080803573ffffffffffffffffffffffffffffffffffffffff169060200190929190505050611c31565b005b34801561065757600080fd5b50610660611d0d565b6040518082815260200191505060405180910390f35b34801561068257600080fd5b5061068b611d13565b604051808215151515815260200191505060405180910390f35b3480156106b157600080fd5b506106ba611d22565b6040518082815260200191505060405180910390f35b3480156106dc57600080fd5b506106e5611d2c565b005b3480156106f357600080fd5b50610732600480360381019080803573ffffffffffffffffffffffffffffffffffffffff16906020019092919080359060200190929190505050611f11565b604051808215151515815260200191505060405180910390f35b34801561075857600080fd5b5061077a600480360381019080803560ff1690602001909291905050506121a3565b005b34801561078857600080fd5b506107c7600480360381019080803573ffffffffffffffffffffffffffffffffffffffff1690602001909291908035906020019092919050505061221d565b005b3480156107d557600080fd5b5061080a600480360381019080803573ffffffffffffffffffffffffffffffffffffffff1690602001909291905050506124d1565b6040518082815260200191505060405180910390f35b34801561082c57600080fd5b50610835612519565b005b34801561084357600080fd5b5061084c61261e565b604051808260ff1660ff16815260200191505060405180910390f35b34801561087457600080fd5b506108a9600480360381019080803573ffffffffffffffffffffffffffffffffffffffff169060200190929190505050612631565b005b3480156108b757600080fd5b506108c061270d565b604051808273ffffffffffffffffffffffffffffffffffffffff1673ffffffffffffffffffffffffffffffffffffffff16815260200191505060405180910390f35b34801561090e57600080fd5b50610917612733565b6040518082815260200191505060405180910390f35b34801561093957600080fd5b50610942612739565b604051808273ffffffffffffffffffffffffffffffffffffffff1673ffffffffffffffffffffffffffffffffffffffff16815260200191505060405180910390f35b34801561099057600080fd5b5061099961275f565b6040518080602001828103825283818151815260200191508051906020019080838360005b838110156109d95780820151818401526020810190506109be565b50505050905090810190601f168015610a065780820380516001836020036101000a031916815260200191505b509250505060405180910390f35b348015610a2057600080fd5b50610a296127fd565b604051808260ff1660ff16815260200191505060405180910390f35b348015610a5157600080fd5b50610a90600480360381019080803573ffffffffffffffffffffffffffffffffffffffff16906020019092919080359060200190929190505050612810565b604051808215151515815260200191505060405180910390f35b348015610ab657600080fd5b50610abf612be1565b6040518082815260200191505060405180910390f35b348015610ae157600080fd5b50610b16600480360381019080803573ffffffffffffffffffffffffffffffffffffffff169060200190929190505050612be7565b005b348015610b2457600080fd5b50610bdd600480360381019080803590602001908201803590602001908080601f0160208091040260200160405190810160405280939291908181526020018383808284378201915050505050509192919290803573ffffffffffffffffffffffffffffffffffffffff169060200190929190803573ffffffffffffffffffffffffffffffffffffffff169060200190929190803590602001909291908035906020019092919080359060200190929190505050612daf565b005b348015610beb57600080fd5b50610c2a600480360381019080803573ffffffffffffffffffffffffffffffffffffffff16906020019092919080359060200190929190505050612dd9565b604051808215151515815260200191505060405180910390f35b348015610c5057600080fd5b50610ca5600480360381019080803573ffffffffffffffffffffffffffffffffffffffff169060200190929190803573ffffffffffffffffffffffffffffffffffffffff169060200190929190505050612fd5565b6040518082815260200191505060405180910390f35b348015610cc757600080fd5b50610cd061305c565b604051808273ffffffffffffffffffffffffffffffffffffffff1673ffffffffffffffffffffffffffffffffffffffff16815260200191505060405180910390f35b348015610d1e57600080fd5b50610d27613082565b604051808273ffffffffffffffffffffffffffffffffffffffff1673ffffffffffffffffffffffffffffffffffffffff16815260200191505060405180910390f35b610d9d600480360381019080803573ffffffffffffffffffffffffffffffffffffffff169060200190929190505050610ebf565b005b348015610dab57600080fd5b50610db46130a8565b604051808273ffffffffffffffffffffffffffffffffffffffff1673ffffffffffffffffffffffffffffffffffffffff16815260200191505060405180910390f35b348015610e0257600080fd5b50610e37600480360381019080803573ffffffffffffffffffffffffffffffffffffffff1690602001909291905050506130ce565b005b348015610e4557600080fd5b50610e4e613136565b6040518082815260200191505060405180910390f35b348015610e7057600080fd5b50610ea5600480360381019080803573ffffffffffffffffffffffffffffffffffffffff169060200190929190505050613140565b604051808215151515815260200191505060405180910390f35b600080349150610ecf83836131ae565b610ed882613242565b9050610eef8260185461333390919063ffffffff16565b601881905550610eff838261334f565b610f0761335d565b8273ffffffffffffffffffffffffffffffffffffffff163373ffffffffffffffffffffffffffffffffffffffff167f623b3804fa71d67900d064613da8f94b9617215ee90799290593e1745087ad188484604051808381526020018281526020019250505060405180910390a3505050565b60115481565b60098054600181600116156101000203166002900480601f0160208091040260200160405190810160405280929190818152602001828054600181600116156101000203166002900480156110155780601f10610fea57610100808354040283529160200191611015565b820191906000526020600020905b815481529060010190602001808311610ff857829003601f168201915b505050505081565b600081600260003373ffffffffffffffffffffffffffffffffffffffff1673ffffffffffffffffffffffffffffffffffffffff16815260200190815260200160002060008573ffffffffffffffffffffffffffffffffffffffff1673ffffffffffffffffffffffffffffffffffffffff168152602001908152602001600020819055508273ffffffffffffffffffffffffffffffffffffffff163373ffffffffffffffffffffffffffffffffffffffff167f8c5be1e5ebec7d5bd14f71427d1e84f3dd0314c0f7b2291e5b200ac8c7c3b925846040518082815260200191505060405180910390a36001905092915050565b60068181548110151561111e57fe5b906000526020600020016000915054906101000a900473ffffffffffffffffffffffffffffffffffffffff1681565b60006015544211905090565b6000600154905090565b600061116e33613140565b151561117957600080fd5b600080600e60009054906101000a900473ffffffffffffffffffffffffffffffffffffffff1673ffffffffffffffffffffffffffffffffffffffff1673ffffffffffffffffffffffffffffffffffffffff1681526020019081526020016000205483111515156111e857600080fd5b600073ffffffffffffffffffffffffffffffffffffffff168473ffffffffffffffffffffffffffffffffffffffff161415151561122457600080fd5b61129783600080600e60009054906101000a900473ffffffffffffffffffffffffffffffffffffffff1673ffffffffffffffffffffffffffffffffffffffff1673ffffffffffffffffffffffffffffffffffffffff168152602001908152602001600020546133c890919063ffffffff16565b600080600e60009054906101000a900473ffffffffffffffffffffffffffffffffffffffff1673ffffffffffffffffffffffffffffffffffffffff1673ffffffffffffffffffffffffffffffffffffffff1681526020019081526020016000208190555061130e82846133c890919063ffffffff16565b9050611361816000808773ffffffffffffffffffffffffffffffffffffffff1673ffffffffffffffffffffffffffffffffffffffff1681526020019081526020016000205461333390919063ffffffff16565b6000808673ffffffffffffffffffffffffffffffffffffffff1673ffffffffffffffffffffffffffffffffffffffff168152602001908152602001600020819055508373ffffffffffffffffffffffffffffffffffffffff16600e60009054906101000a900473ffffffffffffffffffffffffffffffffffffffff1673ffffffffffffffffffffffffffffffffffffffff167fddf252ad1be2c89b69c2b068fc378daa952ba7f163c4a11628f55a4df523b3ef836040518082815260200191505060405180910390a361149d82600080600360009054906101000a900473ffffffffffffffffffffffffffffffffffffffff1673ffffffffffffffffffffffffffffffffffffffff1673ffffffffffffffffffffffffffffffffffffffff1681526020019081526020016000205461333390919063ffffffff16565b600080600360009054906101000a900473ffffffffffffffffffffffffffffffffffffffff1673ffffffffffffffffffffffffffffffffffffffff1673ffffffffffffffffffffffffffffffffffffffff16815260200190815260200160002081905550600360009054906101000a900473ffffffffffffffffffffffffffffffffffffffff1673ffffffffffffffffffffffffffffffffffffffff16600e60009054906101000a900473ffffffffffffffffffffffffffffffffffffffff1673ffffffffffffffffffffffffffffffffffffffff167fddf252ad1be2c89b69c2b068fc378daa952ba7f163c4a11628f55a4df523b3ef846040518082815260200191505060405180910390a350505050565b60008060008073ffffffffffffffffffffffffffffffffffffffff168573ffffffffffffffffffffffffffffffffffffffff16141515156115f057600080fd5b6000808773ffffffffffffffffffffffffffffffffffffffff1673ffffffffffffffffffffffffffffffffffffffff16815260200190815260200160002054841115151561163d57600080fd5b600260008773ffffffffffffffffffffffffffffffffffffffff1673ffffffffffffffffffffffffffffffffffffffff16815260200190815260200160002060003373ffffffffffffffffffffffffffffffffffffffff1673ffffffffffffffffffffffffffffffffffffffff1681526020019081526020016000205484111515156116c857600080fd5b611719846000808973ffffffffffffffffffffffffffffffffffffffff1673ffffffffffffffffffffffffffffffffffffffff168152602001908152602001600020546133c890919063ffffffff16565b6000808873ffffffffffffffffffffffffffffffffffffffff1673ffffffffffffffffffffffffffffffffffffffff168152602001908152602001600020819055506117936064611785600560009054906101000a900460ff1660ff16876133e190919063ffffffff16565b61341990919063ffffffff16565b91506117a882856133c890919063ffffffff16565b90506117fb816000808873ffffffffffffffffffffffffffffffffffffffff1673ffffffffffffffffffffffffffffffffffffffff1681526020019081526020016000205461333390919063ffffffff16565b6000808773ffffffffffffffffffffffffffffffffffffffff1673ffffffffffffffffffffffffffffffffffffffff168152602001908152602001600020819055508473ffffffffffffffffffffffffffffffffffffffff168673ffffffffffffffffffffffffffffffffffffffff167fddf252ad1be2c89b69c2b068fc378daa952ba7f163c4a11628f55a4df523b3ef836040518082815260200191505060405180910390a361191582600080600360009054906101000a900473ffffffffffffffffffffffffffffffffffffffff1673ffffffffffffffffffffffffffffffffffffffff1673ffffffffffffffffffffffffffffffffffffffff1681526020019081526020016000205461333390919063ffffffff16565b600080600360009054906101000a900473ffffffffffffffffffffffffffffffffffffffff1673ffffffffffffffffffffffffffffffffffffffff1673ffffffffffffffffffffffffffffffffffffffff16815260200190815260200160002081905550611a0884600260008973ffffffffffffffffffffffffffffffffffffffff1673ffffffffffffffffffffffffffffffffffffffff16815260200190815260200160002060003373ffffffffffffffffffffffffffffffffffffffff1673ffffffffffffffffffffffffffffffffffffffff168152602001908152602001600020546133c890919063ffffffff16565b600260008873ffffffffffffffffffffffffffffffffffffffff1673ffffffffffffffffffffffffffffffffffffffff16815260200190815260200160002060003373ffffffffffffffffffffffffffffffffffffffff1673ffffffffffffffffffffffffffffffffffffffff16815260200190815260200160002081905550600360009054906101000a900473ffffffffffffffffffffffffffffffffffffffff1673ffffffffffffffffffffffffffffffffffffffff168673ffffffffffffffffffffffffffffffffffffffff167fddf252ad1be2c89b69c2b068fc378daa952ba7f163c4a11628f55a4df523b3ef846040518082815260200191505060405180910390a36001925050509392505050565b600c5481565b600b60009054906101000a900460ff1681565b60145481565b60165481565b60185481565b600560019054906101000a900473ffffffffffffffffffffffffffffffffffffffff1673ffffffffffffffffffffffffffffffffffffffff163373ffffffffffffffffffffffffffffffffffffffff16141515611ba357600080fd5b6000600760008373ffffffffffffffffffffffffffffffffffffffff1673ffffffffffffffffffffffffffffffffffffffff16815260200190815260200160002060006101000a81548160ff0219169083151502179055506008600081819054906101000a900460ff16809291906001900391906101000a81548160ff021916908360ff1602179055505050565b600560019054906101000a900473ffffffffffffffffffffffffffffffffffffffff1673ffffffffffffffffffffffffffffffffffffffff163373ffffffffffffffffffffffffffffffffffffffff16141515611c8d57600080fd5b600073ffffffffffffffffffffffffffffffffffffffff168173ffffffffffffffffffffffffffffffffffffffff1614151515611cc957600080fd5b80600360006101000a81548173ffffffffffffffffffffffffffffffffffffffff021916908373ffffffffffffffffffffffffffffffffffffffff16021790555050565b60155481565b60006014546018541015905090565b6000601a54905090565b6000600560019054906101000a900473ffffffffffffffffffffffffffffffffffffffff1673ffffffffffffffffffffffffffffffffffffffff163373ffffffffffffffffffffffffffffffffffffffff16141515611d8a57600080fd5b611d9261114d565b1515611d9d57600080fd5b6000601a54111515611dae57600080fd5b611dc56001546030546133c890919063ffffffff16565b9050611e3a81600080600d60009054906101000a900473ffffffffffffffffffffffffffffffffffffffff1673ffffffffffffffffffffffffffffffffffffffff1673ffffffffffffffffffffffffffffffffffffffff1681526020019081526020016000205461333390919063ffffffff16565b600080600d60009054906101000a900473ffffffffffffffffffffffffffffffffffffffff1673ffffffffffffffffffffffffffffffffffffffff1673ffffffffffffffffffffffffffffffffffffffff16815260200190815260200160002081905550600d60009054906101000a900473ffffffffffffffffffffffffffffffffffffffff1673ffffffffffffffffffffffffffffffffffffffff167f1227f9baa9c17a74ae4200a9a412668d5892cbf9f1cc63bdcd07cc1be0634192826040518082815260200191505060405180910390a250565b600080600260003373ffffffffffffffffffffffffffffffffffffffff1673ffffffffffffffffffffffffffffffffffffffff16815260200190815260200160002060008573ffffffffffffffffffffffffffffffffffffffff1673ffffffffffffffffffffffffffffffffffffffff1681526020019081526020016000205490508083101515612023576000600260003373ffffffffffffffffffffffffffffffffffffffff1673ffffffffffffffffffffffffffffffffffffffff16815260200190815260200160002060008673ffffffffffffffffffffffffffffffffffffffff1673ffffffffffffffffffffffffffffffffffffffff168152602001908152602001600020819055506120b7565b61203683826133c890919063ffffffff16565b600260003373ffffffffffffffffffffffffffffffffffffffff1673ffffffffffffffffffffffffffffffffffffffff16815260200190815260200160002060008673ffffffffffffffffffffffffffffffffffffffff1673ffffffffffffffffffffffffffffffffffffffff168152602001908152602001600020819055505b8373ffffffffffffffffffffffffffffffffffffffff163373ffffffffffffffffffffffffffffffffffffffff167f8c5be1e5ebec7d5bd14f71427d1e84f3dd0314c0f7b2291e5b200ac8c7c3b925600260003373ffffffffffffffffffffffffffffffffffffffff1673ffffffffffffffffffffffffffffffffffffffff16815260200190815260200160002060008873ffffffffffffffffffffffffffffffffffffffff1673ffffffffffffffffffffffffffffffffffffffff168152602001908152602001600020546040518082815260200191505060405180910390a3600191505092915050565b600560019054906101000a900473ffffffffffffffffffffffffffffffffffffffff1673ffffffffffffffffffffffffffffffffffffffff163373ffffffffffffffffffffffffffffffffffffffff161415156121ff57600080fd5b80600560006101000a81548160ff021916908360ff16021790555050565b61222633613140565b151561223157600080fd5b600080600d60009054906101000a900473ffffffffffffffffffffffffffffffffffffffff1673ffffffffffffffffffffffffffffffffffffffff1673ffffffffffffffffffffffffffffffffffffffff1681526020019081526020016000205481111515156122a057600080fd5b600073ffffffffffffffffffffffffffffffffffffffff168273ffffffffffffffffffffffffffffffffffffffff16141515156122dc57600080fd5b61234f81600080600d60009054906101000a900473ffffffffffffffffffffffffffffffffffffffff1673ffffffffffffffffffffffffffffffffffffffff1673ffffffffffffffffffffffffffffffffffffffff168152602001908152602001600020546133c890919063ffffffff16565b600080600d60009054906101000a900473ffffffffffffffffffffffffffffffffffffffff1673ffffffffffffffffffffffffffffffffffffffff1673ffffffffffffffffffffffffffffffffffffffff16815260200190815260200160002081905550612404816000808573ffffffffffffffffffffffffffffffffffffffff1673ffffffffffffffffffffffffffffffffffffffff1681526020019081526020016000205461333390919063ffffffff16565b6000808473ffffffffffffffffffffffffffffffffffffffff1673ffffffffffffffffffffffffffffffffffffffff168152602001908152602001600020819055508173ffffffffffffffffffffffffffffffffffffffff16600d60009054906101000a900473ffffffffffffffffffffffffffffffffffffffff1673ffffffffffffffffffffffffffffffffffffffff167fddf252ad1be2c89b69c2b068fc378daa952ba7f163c4a11628f55a4df523b3ef836040518082815260200191505060405180910390a35050565b60008060008373ffffffffffffffffffffffffffffffffffffffff1673ffffffffffffffffffffffffffffffffffffffff168152602001908152602001600020549050919050565b600560019054906101000a900473ffffffffffffffffffffffffffffffffffffffff1673ffffffffffffffffffffffffffffffffffffffff163373ffffffffffffffffffffffffffffffffffffffff1614151561257557600080fd5b600560019054906101000a900473ffffffffffffffffffffffffffffffffffffffff1673ffffffffffffffffffffffffffffffffffffffff167ff8df31144d9c2f0f6b59d69b8b98abd5459d07f2742c4df920b25aae33c6482060405160405180910390a26000600560016101000a81548173ffffffffffffffffffffffffffffffffffffffff021916908373ffffffffffffffffffffffffffffffffffffffff160217905550565b600560009054906101000a900460ff1681565b600560019054906101000a900473ffffffffffffffffffffffffffffffffffffffff1673ffffffffffffffffffffffffffffffffffffffff163373ffffffffffffffffffffffffffffffffffffffff1614151561268d57600080fd5b600073ffffffffffffffffffffffffffffffffffffffff168173ffffffffffffffffffffffffffffffffffffffff16141515156126c957600080fd5b80600e60006101000a81548173ffffffffffffffffffffffffffffffffffffffff021916908373ffffffffffffffffffffffffffffffffffffffff16021790555050565b600f60009054906101000a900473ffffffffffffffffffffffffffffffffffffffff1681565b60105481565b600560019054906101000a900473ffffffffffffffffffffffffffffffffffffffff1681565b600a8054600181600116156101000203166002900480601f0160208091040260200160405190810160405280929190818152602001828054600181600116156101000203166002900480156127f55780601f106127ca576101008083540402835291602001916127f5565b820191906000526020600020905b8154815290600101906020018083116127d857829003601f168201915b505050505081565b600860009054906101000a900460ff1681565b60008060008073ffffffffffffffffffffffffffffffffffffffff168573ffffffffffffffffffffffffffffffffffffffff161415151561285057600080fd5b6000803373ffffffffffffffffffffffffffffffffffffffff1673ffffffffffffffffffffffffffffffffffffffff16815260200190815260200160002054841115151561289d57600080fd5b6128ee846000803373ffffffffffffffffffffffffffffffffffffffff1673ffffffffffffffffffffffffffffffffffffffff168152602001908152602001600020546133c890919063ffffffff16565b6000803373ffffffffffffffffffffffffffffffffffffffff1673ffffffffffffffffffffffffffffffffffffffff16815260200190815260200160002081905550612968606461295a600560009054906101000a900460ff1660ff16876133e190919063ffffffff16565b61341990919063ffffffff16565b915061297d82856133c890919063ffffffff16565b90506129d0816000808873ffffffffffffffffffffffffffffffffffffffff1673ffffffffffffffffffffffffffffffffffffffff1681526020019081526020016000205461333390919063ffffffff16565b6000808773ffffffffffffffffffffffffffffffffffffffff1673ffffffffffffffffffffffffffffffffffffffff168152602001908152602001600020819055508473ffffffffffffffffffffffffffffffffffffffff163373ffffffffffffffffffffffffffffffffffffffff167fddf252ad1be2c89b69c2b068fc378daa952ba7f163c4a11628f55a4df523b3ef836040518082815260200191505060405180910390a3612aea82600080600360009054906101000a900473ffffffffffffffffffffffffffffffffffffffff1673ffffffffffffffffffffffffffffffffffffffff1673ffffffffffffffffffffffffffffffffffffffff1681526020019081526020016000205461333390919063ffffffff16565b600080600360009054906101000a900473ffffffffffffffffffffffffffffffffffffffff1673ffffffffffffffffffffffffffffffffffffffff1673ffffffffffffffffffffffffffffffffffffffff16815260200190815260200160002081905550600360009054906101000a900473ffffffffffffffffffffffffffffffffffffffff1673ffffffffffffffffffffffffffffffffffffffff163373ffffffffffffffffffffffffffffffffffffffff167fddf252ad1be2c89b69c2b068fc378daa952ba7f163c4a11628f55a4df523b3ef846040518082815260200191505060405180910390a360019250505092915050565b60175481565b600560019054906101000a900473ffffffffffffffffffffffffffffffffffffffff1673ffffffffffffffffffffffffffffffffffffffff163373ffffffffffffffffffffffffffffffffffffffff16141515612c4357600080fd5b60001515600760008373ffffffffffffffffffffffffffffffffffffffff1673ffffffffffffffffffffffffffffffffffffffff16815260200190815260200160002060009054906101000a900460ff1615151415612dac576001600760008373ffffffffffffffffffffffffffffffffffffffff1673ffffffffffffffffffffffffffffffffffffffff16815260200190815260200160002060006101000a81548160ff02191690831515021790555060068054809190600101612d089190613f60565b50806006612d2560016006805490506133c890919063ffffffff16565b815481101515612d3157fe5b9060005260206000200160006101000a81548173ffffffffffffffffffffffffffffffffffffffff021916908373ffffffffffffffffffffffffffffffffffffffff1602179055506008600081819054906101000a900460ff168092919060010191906101000a81548160ff021916908360ff160217905550505b50565b612db833613140565b1515612dc357600080fd5b612dd186868686868661342f565b505050505050565b6000612e6a82600260003373ffffffffffffffffffffffffffffffffffffffff1673ffffffffffffffffffffffffffffffffffffffff16815260200190815260200160002060008673ffffffffffffffffffffffffffffffffffffffff1673ffffffffffffffffffffffffffffffffffffffff1681526020019081526020016000205461333390919063ffffffff16565b600260003373ffffffffffffffffffffffffffffffffffffffff1673ffffffffffffffffffffffffffffffffffffffff16815260200190815260200160002060008573ffffffffffffffffffffffffffffffffffffffff1673ffffffffffffffffffffffffffffffffffffffff168152602001908152602001600020819055508273ffffffffffffffffffffffffffffffffffffffff163373ffffffffffffffffffffffffffffffffffffffff167f8c5be1e5ebec7d5bd14f71427d1e84f3dd0314c0f7b2291e5b200ac8c7c3b925600260003373ffffffffffffffffffffffffffffffffffffffff1673ffffffffffffffffffffffffffffffffffffffff16815260200190815260200160002060008773ffffffffffffffffffffffffffffffffffffffff1673ffffffffffffffffffffffffffffffffffffffff168152602001908152602001600020546040518082815260200191505060405180910390a36001905092915050565b6000600260008473ffffffffffffffffffffffffffffffffffffffff1673ffffffffffffffffffffffffffffffffffffffff16815260200190815260200160002060008373ffffffffffffffffffffffffffffffffffffffff1673ffffffffffffffffffffffffffffffffffffffff16815260200190815260200160002054905092915050565b600e60009054906101000a900473ffffffffffffffffffffffffffffffffffffffff1681565b600d60009054906101000a900473ffffffffffffffffffffffffffffffffffffffff1681565b601360009054906101000a900473ffffffffffffffffffffffffffffffffffffffff1681565b600560019054906101000a900473ffffffffffffffffffffffffffffffffffffffff1673ffffffffffffffffffffffffffffffffffffffff163373ffffffffffffffffffffffffffffffffffffffff1614151561312a57600080fd5b61313381613968565b50565b6000601954905090565b600060011515600760008473ffffffffffffffffffffffffffffffffffffffff1673ffffffffffffffffffffffffffffffffffffffff16815260200190815260200160002060009054906101000a900460ff16151514156131a457600190506131a9565b600090505b919050565b600073ffffffffffffffffffffffffffffffffffffffff168273ffffffffffffffffffffffffffffffffffffffff16141515156131ea57600080fd5b600081141515156131fa57600080fd5b6014546132128260185461333390919063ffffffff16565b1115151561321f57600080fd5b601754421015801561323357506015544211155b151561323e57600080fd5b5050565b600080600080600080600080600061325b600154613a64565b95506132668a613c54565b9450600193505b831561332357858511156132f1578597506132938860015461333390919063ffffffff16565b92506132a8888861333390919063ffffffff16565b96506132bf6016548961341990919063ffffffff16565b91506132d4828b6133c890919063ffffffff16565b90506132df83613a64565b95506132ea81613c54565b945061331e565b613304858861333390919063ffffffff16565b9650600093506133148686613ca0565b61331d85613cbd565b5b61326d565b8698505050505050505050919050565b6000818301905082811015151561334657fe5b80905092915050565b6133598282613cdb565b5050565b601360009054906101000a900473ffffffffffffffffffffffffffffffffffffffff1673ffffffffffffffffffffffffffffffffffffffff166108fc349081150290604051600060405180830381858888f193505050501580156133c5573d6000803e3d6000fd5b50565b60008282111515156133d657fe5b818303905092915050565b6000808314156133f45760009050613413565b818302905081838281151561340557fe5b0414151561340f57fe5b8090505b92915050565b6000818381151561342657fe5b04905092915050565b60008060008073ffffffffffffffffffffffffffffffffffffffff168773ffffffffffffffffffffffffffffffffffffffff161415151561346f57600080fd5b6000151560048a6040518082805190602001908083835b6020831015156134ab5780518252602082019150602081019050602083039250613486565b6001836020036101000a038019825116818451168082178552505050505050905001915050908152602001604051809103902060009054906101000a900460ff1615151415156134fa57600080fd5b61350687878787613d8d565b9250613512838a613e0f565b91508773ffffffffffffffffffffffffffffffffffffffff168273ffffffffffffffffffffffffffffffffffffffff1614151561354e57600080fd5b613561858761333390919063ffffffff16565b90506000808373ffffffffffffffffffffffffffffffffffffffff1673ffffffffffffffffffffffffffffffffffffffff1681526020019081526020016000205481111515156135b057600080fd5b61361385613605886000808773ffffffffffffffffffffffffffffffffffffffff1673ffffffffffffffffffffffffffffffffffffffff168152602001908152602001600020546133c890919063ffffffff16565b6133c890919063ffffffff16565b6000808473ffffffffffffffffffffffffffffffffffffffff1673ffffffffffffffffffffffffffffffffffffffff168152602001908152602001600020819055506136a6866000808a73ffffffffffffffffffffffffffffffffffffffff1673ffffffffffffffffffffffffffffffffffffffff1681526020019081526020016000205461333390919063ffffffff16565b6000808973ffffffffffffffffffffffffffffffffffffffff1673ffffffffffffffffffffffffffffffffffffffff1681526020019081526020016000208190555061375b85600080600360009054906101000a900473ffffffffffffffffffffffffffffffffffffffff1673ffffffffffffffffffffffffffffffffffffffff1673ffffffffffffffffffffffffffffffffffffffff1681526020019081526020016000205461333390919063ffffffff16565b600080600360009054906101000a900473ffffffffffffffffffffffffffffffffffffffff1673ffffffffffffffffffffffffffffffffffffffff1673ffffffffffffffffffffffffffffffffffffffff16815260200190815260200160002081905550600160048a6040518082805190602001908083835b6020831015156137f957805182526020820191506020810190506020830392506137d4565b6001836020036101000a038019825116818451168082178552505050505050905001915050908152602001604051809103902060006101000a81548160ff0219169083151502179055508673ffffffffffffffffffffffffffffffffffffffff168273ffffffffffffffffffffffffffffffffffffffff163373ffffffffffffffffffffffffffffffffffffffff167f339e733e8f3d5b80a99579a1bd0d885dd3d96783439f354abebcd98f88b6462c896040518082815260200191505060405180910390a4600360009054906101000a900473ffffffffffffffffffffffffffffffffffffffff1673ffffffffffffffffffffffffffffffffffffffff168273ffffffffffffffffffffffffffffffffffffffff163373ffffffffffffffffffffffffffffffffffffffff167f339e733e8f3d5b80a99579a1bd0d885dd3d96783439f354abebcd98f88b6462c886040518082815260200191505060405180910390a4505050505050505050565b600073ffffffffffffffffffffffffffffffffffffffff168173ffffffffffffffffffffffffffffffffffffffff16141515156139a457600080fd5b8073ffffffffffffffffffffffffffffffffffffffff16600560019054906101000a900473ffffffffffffffffffffffffffffffffffffffff1673ffffffffffffffffffffffffffffffffffffffff167f8be0079c531659141344cd1fd0a4f28419497f9722a3daafe3b4186f6b6457e060405160405180910390a380600560016101000a81548173ffffffffffffffffffffffffffffffffffffffff021916908373ffffffffffffffffffffffffffffffffffffffff16021790555050565b600080602954831015613b6057602754831015613b0657602554831015613aac57613a90601b54613f07565b613aa5836025546133c890919063ffffffff16565b9050613b01565b602654831015613add57613ac1601c54613f07565b613ad6836026546133c890919063ffffffff16565b9050613b00565b613ae8601d54613f07565b613afd836027546133c890919063ffffffff16565b90505b5b613b5b565b602854831015613b3757613b1b601e54613f07565b613b30836028546133c890919063ffffffff16565b9050613b5a565b613b42601f54613f07565b613b57836029546133c890919063ffffffff16565b90505b5b613c4b565b602c54831015613bf557602a54831015613b9b57613b7f602054613f07565b613b9483602a546133c890919063ffffffff16565b9050613bf0565b602b54831015613bcc57613bb0602154613f07565b613bc583602b546133c890919063ffffffff16565b9050613bef565b613bd7602254613f07565b613bec83602c546133c890919063ffffffff16565b90505b5b613c4a565b602d54831015613c2657613c0a602354613f07565b613c1f83602d546133c890919063ffffffff16565b9050613c49565b613c31602454613f07565b613c4683602e546133c890919063ffffffff16565b90505b5b5b80915050919050565b6000613c99670de0b6b3a7640000613c8b601254613c7d601654876133e190919063ffffffff16565b6133e190919063ffffffff16565b61341990919063ffffffff16565b9050919050565b613cb381836133c890919063ffffffff16565b6019819055505050565b613cd281602f546133c890919063ffffffff16565b601a8190555050565b613cf08160015461333390919063ffffffff16565b600181905550613d47816000808573ffffffffffffffffffffffffffffffffffffffff1673ffffffffffffffffffffffffffffffffffffffff1681526020019081526020016000205461333390919063ffffffff16565b6000808473ffffffffffffffffffffffffffffffffffffffff1673ffffffffffffffffffffffffffffffffffffffff168152602001908152602001600020819055505050565b60008085858585604051808573ffffffffffffffffffffffffffffffffffffffff1673ffffffffffffffffffffffffffffffffffffffff166c0100000000000000000000000002815260140184815260200183815260200182815260200194505050505060405180910390209050613e0481613f11565b915050949350505050565b60008060008060418551141515613e295760009350613efe565b6020850151925060408501519150606085015160001a9050601b8160ff161015613e5457601b810190505b601b8160ff1614158015613e6c5750601c8160ff1614155b15613e7a5760009350613efe565b600186828585604051600081526020016040526040518085600019166000191681526020018460ff1660ff1681526020018360001916600019168152602001826000191660001916815260200194505050505060206040516020810390808403906000865af1158015613ef1573d6000803e3d6000fd5b5050506020604051035193505b50505092915050565b8060168190555050565b60008160405180807f19457468657265756d205369676e6564204d6573736167653a0a333200000000815250601c01826000191660001916815260200191505060405180910390209050919050565b815481835581811115613f8757818360005260206000209182019101613f869190613f8c565b5b505050565b613fae91905b80821115613faa576000816000905550600101613f92565b5090565b905600a165627a7a723058203fadda06e4fc627875b48e3c9a06ced0905f2d46b68502aed7de97e7f01d892f0029",
  "source": "pragma solidity ^0.4.24;\n\nimport \"./BlockWRKToken.sol\";\n\n/**\n * @title BlockWRKICO\n * @notice This contract manages the sale of WRK tokens for the BlockWRK ICO.\n * @dev This contract incorporates elements of OpenZeppelin crowdsale contracts with some modifications.\n * @author jsdavis28\n */\n contract BlockWRKICO is BlockWRKToken {\n    /**\n     * @dev Sets public variables for BlockWRK ICO\n     */\n    address public salesWallet;\n    uint256 public cap;\n    uint256 public closingTime;\n    uint256 public currentTierRate;\n    uint256 public openingTime;\n    uint256 public weiRaised;\n\n    /**\n     * @dev Sets private variables for custom token functions.\n     */\n    uint256 internal availableInCurrentTier;\n    uint256 internal availableInSale;\n    uint256 internal tier1Rate = 200000;\n    uint256 internal tier2Rate = 40000;\n    uint256 internal tier3Rate = 20000;\n    uint256 internal tier4Rate = 10000;\n    uint256 internal tier5Rate = 10000;\n    uint256 internal tier6Rate = 10000;\n    uint256 internal tier7Rate = 10000;\n    uint256 internal tier8Rate = 10000;\n    uint256 internal tier9Rate = 10000;\n    uint256 internal tier10Rate = 10000;\n    uint256 internal tier1Volume = decimalValue.mul(100000000);\n    uint256 internal tier2Volume = decimalValue.mul(200000000);\n    uint256 internal tier3Volume = decimalValue.mul(500000000);\n    uint256 internal tier4Volume = decimalValue.mul(500000000);\n    uint256 internal tier5Volume = decimalValue.mul(500000000);\n    uint256 internal tier6Volume = decimalValue.mul(500000000);\n    uint256 internal tier7Volume = decimalValue.mul(500000000);\n    uint256 internal tier8Volume = decimalValue.mul(500000000);\n    uint256 internal tier9Volume = decimalValue.mul(500000000);\n    uint256 internal tier10Volume = decimalValue.mul(500000000);\n    uint256 internal totalSaleVolume = decimalValue.mul(4300000000);\n    uint256 internal totalTokenVolume = decimalValue.mul(11900000000);\n\n    constructor() public {\n        cap = 20000000000000000000000000000000000000000;\n        //salesWallet =\n        openingTime = now;\n        closingTime = now;\n    }\n\n    /**\n     * Event for token purchase logging\n     * @param purchaser who paid for the tokens\n     * @param beneficiary who got the tokens\n     * @param value weis paid for purchase\n     * @param amount amount of tokens purchased\n     */\n    event TokenPurchase(\n        address indexed purchaser,\n        address indexed beneficiary,\n        uint256 value,\n        uint256 amount\n    );\n\n    /**\n     * Event marking the transfer of any remaining WRK to the distribution pool post-ICO\n     * @param wallet The address remaining sale tokens are delivered\n     * @param amount The remaining tokens after the sale has closed\n     */\n     event CloseoutSale(address indexed wallet, uint256 amount);\n\n\n\n    // -----------------------------------------\n    // Crowdsale external interface\n    // -----------------------------------------\n\n    /**\n     * @dev fallback function\n     */\n    function () external payable {\n      buyTokens(msg.sender);\n    }\n\n    /**\n     * @dev Allows ICO participants to purchase WRK tokens\n     * @param _beneficiary The address of the ICO participant\n     */\n    function buyTokens(address _beneficiary) public payable {\n      uint256 weiAmount = msg.value;\n      _preValidatePurchase(_beneficiary, weiAmount);\n\n      //Calculate number of tokens to issue\n      uint256 tokens = _calculateTokens(weiAmount);\n\n      //Calculate new amount of Wei raised\n      weiRaised = weiRaised.add(weiAmount);\n\n      //Process token purchase and forward funcds to salesWallet\n      _processPurchase(_beneficiary, tokens);\n      _forwardFunds();\n      emit TokenPurchase(msg.sender, _beneficiary, weiAmount, tokens);\n    }\n\n    /**\n     * @dev Checks whether the cap has been reached.\n     * @return Whether the cap was reached\n     */\n    function capReached() public view returns (bool) {\n      return weiRaised >= cap;\n    }\n\n     /**\n      * @dev Checks whether the period in which the crowdsale is open has already elapsed.\n      * @return Whether crowdsale period has elapsed\n      */\n     function hasClosed() public view returns (bool) {\n         // solium-disable-next-line security/no-block-members\n         return block.timestamp > closingTime;\n     }\n\n\n\n    // -----------------------------------------\n    // Internal interface (extensible)\n    // -----------------------------------------\n\n    /**\n     * @dev Calculates total number of tokens to sell, accounting for varied rates per tier.\n     * @param _amountWei Total amount of Wei sent by ICO participant\n     * @return Total number of tokens to send to buyer\n     */\n    function _calculateTokens(uint256 _amountWei) internal returns (uint256) {\n        //Tokens pending in sale\n        uint256 tokenAmountPending;\n\n        //Tokens to be sold\n        uint256 tokenAmountToIssue;\n\n        //Note: tierCaps must take into account reserved and distribution pool tokens\n        //Determine tokens remaining in tier and set current token rate\n        uint256 tokensRemainingInTier = _getRemainingTokens(totalSupply_);\n\n        //Calculate new tokens pending sale\n        uint256 newTokens = _getTokenAmount(_amountWei);\n\n        //Check if _newTokens exceeds _tokensRemainingInTier\n        bool nextTier = true;\n        while (nextTier) {\n            if (newTokens > tokensRemainingInTier) {\n                //Get tokens sold in current tier and add to pending total supply\n                tokenAmountPending = tokensRemainingInTier;\n                uint256 newTotal = totalSupply_.add(tokenAmountPending);\n\n                //Save number of tokens pending from current tier\n                tokenAmountToIssue = tokenAmountToIssue.add(tokenAmountPending);\n\n                //Calculate Wei spent in current tier and set remaining Wei for next tier\n                uint256 pendingAmountWei = tokenAmountPending.div(currentTierRate);\n                uint256 remainingWei = _amountWei.sub(pendingAmountWei);\n\n                //Calculate number of tokens in next tier\n                tokensRemainingInTier = _getRemainingTokens(newTotal);\n                newTokens = _getTokenAmount(remainingWei);\n            } else {\n                tokenAmountToIssue = tokenAmountToIssue.add(newTokens);\n                nextTier = false;\n                _setAvailableInCurrentTier(tokensRemainingInTier, newTokens);\n                _setAvailableInSale(newTokens);\n            }\n        }\n\n        //Return amount of tokens to be issued in this sale\n        return tokenAmountToIssue;\n    }\n\n    /**\n     * @dev Source of tokens.\n     * @param _beneficiary Address performing the token purchase\n     * @param _tokenAmount Number of tokens to be emitted\n     */\n    function _deliverTokens(address _beneficiary, uint256 _tokenAmount) internal {\n        totalSupply_ = totalSupply_.add(_tokenAmount);\n        balances[_beneficiary] = balances[_beneficiary].add(_tokenAmount);\n    }\n\n    /**\n     * @dev Determines how ETH is stored/forwarded on purchases.\n     */\n    function _forwardFunds() internal {\n        salesWallet.transfer(msg.value);\n    }\n\n    /**\n     * @dev Performs a binary search of the sale tiers to determine current sales volume and rate.\n     * @param _tokensSold The total number of tokens sold in the ICO prior to this tx\n     * @return The remaining number of tokens for sale in the current sale tier\n     */\n    function _getRemainingTokens(uint256 _tokensSold) internal returns (uint256) {\n        //Deteremine the current sale tier, set current rate and find remaining tokens in tier\n        uint256 remaining;\n        if (_tokensSold < tier5Volume) {\n            if (_tokensSold < tier3Volume) {\n                if (_tokensSold < tier1Volume) {\n                    _setCurrentTierRate(tier1Rate);\n                    remaining = tier1Volume.sub(_tokensSold);\n                } else if (_tokensSold < tier2Volume) {\n                    _setCurrentTierRate(tier2Rate);\n                    remaining = tier2Volume.sub(_tokensSold);\n                } else {\n                    _setCurrentTierRate(tier3Rate);\n                    remaining = tier3Volume.sub(_tokensSold);\n                }\n            } else {\n                if (_tokensSold < tier4Volume) {\n                    _setCurrentTierRate(tier4Rate);\n                    remaining = tier4Volume.sub(_tokensSold);\n                } else {\n                    _setCurrentTierRate(tier5Rate);\n                    remaining = tier5Volume.sub(_tokensSold);\n                }\n            }\n        } else {\n            if (_tokensSold < tier8Volume) {\n                if (_tokensSold < tier6Volume) {\n                    _setCurrentTierRate(tier6Rate);\n                    remaining = tier6Volume.sub(_tokensSold);\n                } else if (_tokensSold < tier7Volume) {\n                    _setCurrentTierRate(tier7Rate);\n                    remaining = tier7Volume.sub(_tokensSold);\n                } else {\n                    _setCurrentTierRate(tier8Rate);\n                    remaining = tier8Volume.sub(_tokensSold);\n                }\n            } else {\n                if (_tokensSold < tier9Volume) {\n                    _setCurrentTierRate(tier9Rate);\n                    remaining = tier9Volume.sub(_tokensSold);\n                } else {\n                    _setCurrentTierRate(tier10Rate);\n                    remaining = tier10Volume.sub(_tokensSold);\n                }\n            }\n        }\n\n        return remaining;\n    }\n\n    /**\n     * @dev Override to extend the way in which ether is converted to tokens.\n     * @param _weiAmount Value in wei to be converted into tokens\n     * @return Number of tokens that can be purchased with the specified _weiAmount\n     */\n    function _getTokenAmount(uint256 _weiAmount) internal view returns (uint256) {\n        return _weiAmount.mul(currentTierRate).mul(decimalValue).div(1 ether);\n    }\n\n    /**\n     * @dev Validation of an incoming purchase.\n     * @param _beneficiary Address performing the token purchase\n     * @param _weiAmount Value in wei involved in the purchase\n     */\n    function _preValidatePurchase(address _beneficiary, uint256 _weiAmount) internal {\n        require(_beneficiary != address(0));\n        require(_weiAmount != 0);\n        require(weiRaised.add(_weiAmount) <= cap);\n        // solium-disable-next-line security/no-block-members\n        require(block.timestamp >= openingTime && block.timestamp <= closingTime);\n    }\n\n    /**\n     * @dev Executed when a purchase has been validated and is ready to be executed. Not necessarily emits/sends tokens.\n     * @param _beneficiary Address receiving the tokens\n     * @param _tokenAmount Number of tokens to be purchased\n     */\n    function _processPurchase(address _beneficiary, uint256 _tokenAmount) internal {\n        _deliverTokens(_beneficiary, _tokenAmount);\n    }\n\n    function _setAvailableInCurrentTier(uint256 _tierPreviousRemaining, uint256 _newIssue) internal {\n        availableInCurrentTier = _tierPreviousRemaining.sub(_newIssue);\n    }\n\n    function _setAvailableInSale(uint256 _newIssue) internal {\n        availableInSale = totalSaleVolume.sub(_newIssue);\n    }\n\n    function _setCurrentTierRate(uint256 _rate) internal {\n        currentTierRate = _rate;\n    }\n\n    function tokensRemainingInSale() public view returns (uint256) {\n        return availableInSale;\n    }\n\n    function tokensRemainingInTier() public view returns (uint256) {\n        return availableInCurrentTier;\n    }\n\n     function transferRemainingTokens() public onlyOwner {\n         //require that sale is closed\n         require(hasClosed());\n\n         //require that tokens are still remaining after close\n         require(availableInSale > 0);\n\n         //calculate remaining seed tokens\n         uint256 finalTokensRemaining = totalTokenVolume.sub(totalSupply_);\n\n         //send remaining tokens to distribution pool wallet\n         balances[distributionPoolWallet] = balances[distributionPoolWallet].add(finalTokensRemaining);\n         emit CloseoutSale(distributionPoolWallet, finalTokensRemaining);\n     }\n}\n",
  "sourcePath": "/home/jef/BlockWRKToken/contracts/BlockWRKICO.sol",
  "compiler": {
    "name": "solc",
    "version": "0.4.24+commit.e67f0147.Emscripten.clang"
  },
  "schemaVersion": "2.0.0",
  "updatedAt": "2018-10-12T08:51:29.932Z"
}